{
  "_format": "hh-sol-artifact-1",
  "contractName": "Launchpad",
  "sourceName": "contracts/Launchpad.sol",
  "abi": [
    {
      "inputs": [
        {
          "internalType": "address",
          "name": "_uniswapFactory",
          "type": "address"
        },
        {
          "internalType": "address",
          "name": "_uniswapPositionManager",
          "type": "address"
        },
        {
          "internalType": "address",
          "name": "_wethAddress",
          "type": "address"
        }
      ],
      "stateMutability": "nonpayable",
      "type": "constructor"
    },
    {
      "inputs": [
        {
          "internalType": "address",
          "name": "target",
          "type": "address"
        }
      ],
      "name": "AddressEmptyCode",
      "type": "error"
    },
    {
      "inputs": [
        {
          "internalType": "address",
          "name": "account",
          "type": "address"
        }
      ],
      "name": "AddressInsufficientBalance",
      "type": "error"
    },
    {
      "inputs": [],
      "name": "AddressZero",
      "type": "error"
    },
    {
      "inputs": [],
      "name": "AlreadyWithdrawn",
      "type": "error"
    },
    {
      "inputs": [],
      "name": "ClaimedAlready",
      "type": "error"
    },
    {
      "inputs": [],
      "name": "DurationShouldBeAtleastOneDay",
      "type": "error"
    },
    {
      "inputs": [],
      "name": "EnforcedPause",
      "type": "error"
    },
    {
      "inputs": [],
      "name": "ExpectedPause",
      "type": "error"
    },
    {
      "inputs": [],
      "name": "FailedInnerCall",
      "type": "error"
    },
    {
      "inputs": [],
      "name": "IneligibleForRefund",
      "type": "error"
    },
    {
      "inputs": [],
      "name": "InvalidTokenAddressZero",
      "type": "error"
    },
    {
      "inputs": [],
      "name": "InvalidTokenContractAddress",
      "type": "error"
    },
    {
      "inputs": [
        {
          "internalType": "uint256",
          "name": "_maxInvestmentPossible",
          "type": "uint256"
        }
      ],
      "name": "InvestmentAmountExceedsHardcap",
      "type": "error"
    },
    {
      "inputs": [],
      "name": "InvestmentAmtBelowMinimum",
      "type": "error"
    },
    {
      "inputs": [],
      "name": "InvestmentAmtExceedsMaximum",
      "type": "error"
    },
    {
      "inputs": [],
      "name": "InvestmentNotReachedSoftcap",
      "type": "error"
    },
    {
      "inputs": [],
      "name": "MaxInvestmentMustBeGreaterOrEqualToMinInvestment",
      "type": "error"
    },
    {
      "inputs": [],
      "name": "MaxInvestmentShouldBeLessThanOrEqualToHardcap",
      "type": "error"
    },
    {
      "inputs": [],
      "name": "MinimumInvestmentMustBeGreaterThanZero",
      "type": "error"
    },
    {
      "inputs": [],
      "name": "NotLaunchpadAdmin",
      "type": "error"
    },
    {
      "inputs": [],
      "name": "NotProjectOwner",
      "type": "error"
    },
    {
      "inputs": [],
      "name": "OldAdmin",
      "type": "error"
    },
    {
      "inputs": [],
      "name": "ProjectEnded",
      "type": "error"
    },
    {
      "inputs": [],
      "name": "ProjectIsAlreadyInitializedOrActive",
      "type": "error"
    },
    {
      "inputs": [],
      "name": "ProjectIsNotEndedYet",
      "type": "error"
    },
    {
      "inputs": [],
      "name": "ProjectNotActive",
      "type": "error"
    },
    {
      "inputs": [],
      "name": "ProjectNotStartedYet",
      "type": "error"
    },
    {
      "inputs": [],
      "name": "ProjectStillInProgress",
      "type": "error"
    },
    {
      "inputs": [],
      "name": "ReentrancyGuardReentrantCall",
      "type": "error"
    },
    {
      "inputs": [
        {
          "internalType": "address",
          "name": "token",
          "type": "address"
        }
      ],
      "name": "SafeERC20FailedOperation",
      "type": "error"
    },
    {
      "inputs": [],
      "name": "SoftcapMustBeLessThanHardcap",
      "type": "error"
    },
    {
      "inputs": [],
      "name": "StartTimeMustBeInFuture",
      "type": "error"
    },
    {
      "inputs": [],
      "name": "TokenAllocationMustBeGreaterThanZero",
      "type": "error"
    },
    {
      "inputs": [],
      "name": "TxnFailed",
      "type": "error"
    },
    {
      "inputs": [],
      "name": "YouAreNotAnInvestor",
      "type": "error"
    },
    {
      "anonymous": false,
      "inputs": [
        {
          "indexed": false,
          "internalType": "address",
          "name": "tokenContractAddress",
          "type": "address"
        },
        {
          "indexed": false,
          "internalType": "uint24",
          "name": "percentage",
          "type": "uint24"
        }
      ],
      "name": "EmergencyWithdrawalPercentUpdated",
      "type": "event"
    },
    {
      "anonymous": false,
      "inputs": [
        {
          "indexed": true,
          "internalType": "address",
          "name": "tokenContractAddress",
          "type": "address"
        },
        {
          "indexed": true,
          "internalType": "address",
          "name": "investor",
          "type": "address"
        },
        {
          "indexed": false,
          "internalType": "uint256",
          "name": "amountInvested",
          "type": "uint256"
        }
      ],
      "name": "InvestmentMade",
      "type": "event"
    },
    {
      "anonymous": false,
      "inputs": [
        {
          "indexed": false,
          "internalType": "address",
          "name": "account",
          "type": "address"
        }
      ],
      "name": "Paused",
      "type": "event"
    },
    {
      "anonymous": false,
      "inputs": [
        {
          "indexed": false,
          "internalType": "address",
          "name": "projectToken",
          "type": "address"
        },
        {
          "indexed": false,
          "internalType": "address",
          "name": "pool",
          "type": "address"
        },
        {
          "indexed": false,
          "internalType": "uint256",
          "name": "postionMintId",
          "type": "uint256"
        }
      ],
      "name": "PoolCreated",
      "type": "event"
    },
    {
      "anonymous": false,
      "inputs": [
        {
          "indexed": true,
          "internalType": "address",
          "name": "tokenContractAddress",
          "type": "address"
        },
        {
          "indexed": true,
          "internalType": "address",
          "name": "projectOwner",
          "type": "address"
        },
        {
          "indexed": false,
          "internalType": "uint256",
          "name": "softCap",
          "type": "uint256"
        },
        {
          "indexed": false,
          "internalType": "uint256",
          "name": "hardCap",
          "type": "uint256"
        },
        {
          "indexed": false,
          "internalType": "uint256",
          "name": "minInvestment",
          "type": "uint256"
        },
        {
          "indexed": false,
          "internalType": "uint256",
          "name": "maxInvestment",
          "type": "uint256"
        },
        {
          "indexed": false,
          "internalType": "uint256",
          "name": "tokenMaxCap",
          "type": "uint256"
        },
        {
          "indexed": false,
          "internalType": "uint256",
          "name": "endTime",
          "type": "uint256"
        },
        {
          "indexed": false,
          "internalType": "uint24",
          "name": "_liquidityPercentEth",
          "type": "uint24"
        },
        {
          "indexed": false,
          "internalType": "uint24",
          "name": "_liquidityPercentToken",
          "type": "uint24"
        }
      ],
      "name": "ProjectListed",
      "type": "event"
    },
    {
      "anonymous": false,
      "inputs": [
        {
          "indexed": false,
          "internalType": "uint256",
          "name": "startTime",
          "type": "uint256"
        },
        {
          "indexed": false,
          "internalType": "uint256",
          "name": "endTime",
          "type": "uint256"
        }
      ],
      "name": "ProjectTimeUpdated",
      "type": "event"
    },
    {
      "anonymous": false,
      "inputs": [
        {
          "indexed": false,
          "internalType": "address",
          "name": "account",
          "type": "address"
        }
      ],
      "name": "Unpaused",
      "type": "event"
    },
    {
      "inputs": [
        {
          "internalType": "address",
          "name": "_tokenContractAddress",
          "type": "address"
        }
      ],
      "name": "EmergencyInvestmentWithdrawal",
      "outputs": [],
      "stateMutability": "nonpayable",
      "type": "function"
    },
    {
      "inputs": [],
      "name": "WETH",
      "outputs": [
        {
          "internalType": "contract IWETH",
          "name": "",
          "type": "address"
        }
      ],
      "stateMutability": "view",
      "type": "function"
    },
    {
      "inputs": [
        {
          "internalType": "address",
          "name": "_tokenContractAddress",
          "type": "address"
        }
      ],
      "name": "cancelProject",
      "outputs": [],
      "stateMutability": "nonpayable",
      "type": "function"
    },
    {
      "inputs": [
        {
          "internalType": "address",
          "name": "_newAdmin",
          "type": "address"
        }
      ],
      "name": "changeLaunchpadAdmin",
      "outputs": [],
      "stateMutability": "nonpayable",
      "type": "function"
    },
    {
      "inputs": [
        {
          "internalType": "address",
          "name": "_tokenContractAddress",
          "type": "address"
        }
      ],
      "name": "claimTokens",
      "outputs": [],
      "stateMutability": "nonpayable",
      "type": "function"
    },
    {
      "inputs": [
        {
          "internalType": "address",
          "name": "_tokenContractAddress",
          "type": "address"
        }
      ],
      "name": "createPoolAndAddLiquidity",
      "outputs": [],
      "stateMutability": "nonpayable",
      "type": "function"
    },
    {
      "inputs": [],
      "name": "factory_contract",
      "outputs": [
        {
          "internalType": "address",
          "name": "",
          "type": "address"
        }
      ],
      "stateMutability": "view",
      "type": "function"
    },
    {
      "inputs": [],
      "name": "feeAmount",
      "outputs": [
        {
          "internalType": "uint24",
          "name": "",
          "type": "uint24"
        }
      ],
      "stateMutability": "view",
      "type": "function"
    },
    {
      "inputs": [
        {
          "internalType": "address",
          "name": "_tokenContractAddress",
          "type": "address"
        }
      ],
      "name": "getInvestorsForAParticularProject",
      "outputs": [
        {
          "internalType": "address[]",
          "name": "",
          "type": "address[]"
        }
      ],
      "stateMutability": "view",
      "type": "function"
    },
    {
      "inputs": [
        {
          "internalType": "address",
          "name": "_tokenContractAddress",
          "type": "address"
        }
      ],
      "name": "getProjectDetails",
      "outputs": [
        {
          "components": [
            {
              "internalType": "address",
              "name": "projectOwner",
              "type": "address"
            },
            {
              "internalType": "uint256",
              "name": "minInvestment",
              "type": "uint256"
            },
            {
              "internalType": "uint256",
              "name": "maxInvestment",
              "type": "uint256"
            },
            {
              "internalType": "uint256",
              "name": "tokenMaxCap",
              "type": "uint256"
            },
            {
              "internalType": "uint256",
              "name": "softCap",
              "type": "uint256"
            },
            {
              "internalType": "uint256",
              "name": "hardCap",
              "type": "uint256"
            },
            {
              "internalType": "uint256",
              "name": "startTime",
              "type": "uint256"
            },
            {
              "internalType": "uint256",
              "name": "endTime",
              "type": "uint256"
            },
            {
              "internalType": "uint256",
              "name": "totalAmountRaised",
              "type": "uint256"
            },
            {
              "internalType": "uint256",
              "name": "totalTokenClaimed",
              "type": "uint256"
            },
            {
              "internalType": "uint24",
              "name": "liquidityPercentToken",
              "type": "uint24"
            },
            {
              "internalType": "uint24",
              "name": "liquidityPercentEth",
              "type": "uint24"
            },
            {
              "internalType": "bool",
              "name": "isActive",
              "type": "bool"
            },
            {
              "internalType": "bool",
              "name": "withdrawn",
              "type": "bool"
            },
            {
              "internalType": "contract IERC20",
              "name": "token",
              "type": "address"
            },
            {
              "internalType": "address[]",
              "name": "projectInvestors",
              "type": "address[]"
            },
            {
              "internalType": "uint24",
              "name": "emergencyWithrawalPenaltyPercent",
              "type": "uint24"
            }
          ],
          "internalType": "struct Launchpad.Project",
          "name": "",
          "type": "tuple"
        }
      ],
      "stateMutability": "view",
      "type": "function"
    },
    {
      "inputs": [
        {
          "internalType": "address",
          "name": "_tokenContractAddress",
          "type": "address"
        }
      ],
      "name": "getProjectTotalAmtRaised",
      "outputs": [
        {
          "internalType": "uint256",
          "name": "",
          "type": "uint256"
        }
      ],
      "stateMutability": "view",
      "type": "function"
    },
    {
      "inputs": [
        {
          "internalType": "address",
          "name": "_tokenContractAddress",
          "type": "address"
        }
      ],
      "name": "getProjectTotalTokenClaimed",
      "outputs": [
        {
          "internalType": "uint256",
          "name": "",
          "type": "uint256"
        }
      ],
      "stateMutability": "view",
      "type": "function"
    },
    {
      "inputs": [
        {
          "internalType": "address",
          "name": "_tokenContractAddress",
          "type": "address"
        }
      ],
      "name": "getRefund",
      "outputs": [],
      "stateMutability": "nonpayable",
      "type": "function"
    },
    {
      "inputs": [
        {
          "internalType": "address",
          "name": "_tokenContractAddress",
          "type": "address"
        }
      ],
      "name": "getTimeLeftForAParticularProject",
      "outputs": [
        {
          "internalType": "uint256",
          "name": "",
          "type": "uint256"
        }
      ],
      "stateMutability": "view",
      "type": "function"
    },
    {
      "inputs": [
        {
          "internalType": "address",
          "name": "_tokenContractAddress",
          "type": "address"
        }
      ],
      "name": "getTokenBalanceInLaunchPad",
      "outputs": [
        {
          "internalType": "uint256",
          "name": "",
          "type": "uint256"
        }
      ],
      "stateMutability": "view",
      "type": "function"
    },
    {
      "inputs": [
        {
          "internalType": "address",
          "name": "_tokenContractAddress",
          "type": "address"
        }
      ],
      "name": "getTokenLeft",
      "outputs": [
        {
          "internalType": "uint256",
          "name": "",
          "type": "uint256"
        }
      ],
      "stateMutability": "view",
      "type": "function"
    },
    {
      "inputs": [
        {
          "internalType": "address",
          "name": "_tokenContractAddress",
          "type": "address"
        }
      ],
      "name": "getTotalInvestorsForAParticularProject",
      "outputs": [
        {
          "internalType": "uint256",
          "name": "",
          "type": "uint256"
        }
      ],
      "stateMutability": "view",
      "type": "function"
    },
    {
      "inputs": [
        {
          "internalType": "address",
          "name": "_tokenContractAddress",
          "type": "address"
        }
      ],
      "name": "invest",
      "outputs": [],
      "stateMutability": "payable",
      "type": "function"
    },
    {
      "inputs": [],
      "name": "launchpadAdmin",
      "outputs": [
        {
          "internalType": "address",
          "name": "",
          "type": "address"
        }
      ],
      "stateMutability": "view",
      "type": "function"
    },
    {
      "inputs": [
        {
          "internalType": "contract IERC20",
          "name": "_token",
          "type": "address"
        },
        {
          "internalType": "uint256",
          "name": "_minInvestment",
          "type": "uint256"
        },
        {
          "internalType": "uint256",
          "name": "_maxInvestment",
          "type": "uint256"
        },
        {
          "internalType": "uint256",
          "name": "_tokenMaxCap",
          "type": "uint256"
        },
        {
          "internalType": "uint256",
          "name": "_softCap",
          "type": "uint256"
        },
        {
          "internalType": "uint256",
          "name": "_hardCap",
          "type": "uint256"
        },
        {
          "internalType": "uint24",
          "name": "_liquidityPercentToken",
          "type": "uint24"
        },
        {
          "internalType": "uint24",
          "name": "_liquidityPercentEth",
          "type": "uint24"
        },
        {
          "internalType": "uint256",
          "name": "_startTime",
          "type": "uint256"
        },
        {
          "internalType": "uint256",
          "name": "_duration",
          "type": "uint256"
        }
      ],
      "name": "listProject",
      "outputs": [],
      "stateMutability": "nonpayable",
      "type": "function"
    },
    {
      "inputs": [],
      "name": "pause",
      "outputs": [],
      "stateMutability": "nonpayable",
      "type": "function"
    },
    {
      "inputs": [],
      "name": "paused",
      "outputs": [
        {
          "internalType": "bool",
          "name": "",
          "type": "bool"
        }
      ],
      "stateMutability": "view",
      "type": "function"
    },
    {
      "inputs": [],
      "name": "position_manager",
      "outputs": [
        {
          "internalType": "address",
          "name": "",
          "type": "address"
        }
      ],
      "stateMutability": "view",
      "type": "function"
    },
    {
      "inputs": [
        {
          "internalType": "address",
          "name": "",
          "type": "address"
        },
        {
          "internalType": "address",
          "name": "",
          "type": "address"
        }
      ],
      "name": "projectInvestments",
      "outputs": [
        {
          "internalType": "uint256",
          "name": "",
          "type": "uint256"
        }
      ],
      "stateMutability": "view",
      "type": "function"
    },
    {
      "inputs": [
        {
          "internalType": "address",
          "name": "",
          "type": "address"
        }
      ],
      "name": "projectPoolData",
      "outputs": [
        {
          "internalType": "address",
          "name": "pool",
          "type": "address"
        },
        {
          "internalType": "uint256",
          "name": "positionMintId",
          "type": "uint256"
        }
      ],
      "stateMutability": "view",
      "type": "function"
    },
    {
      "inputs": [
        {
          "internalType": "address",
          "name": "_tokenContractAddress",
          "type": "address"
        }
      ],
      "name": "refundTokens",
      "outputs": [],
      "stateMutability": "nonpayable",
      "type": "function"
    },
    {
      "inputs": [
        {
          "internalType": "address",
          "name": "_tokenContractAddress",
          "type": "address"
        },
        {
          "internalType": "uint24",
          "name": "_percentage",
          "type": "uint24"
        }
      ],
      "name": "setEmergencyWithdrawalPercent",
      "outputs": [],
      "stateMutability": "nonpayable",
      "type": "function"
    },
    {
      "inputs": [
        {
          "internalType": "address",
          "name": "_tokenContractAddress",
          "type": "address"
        },
        {
          "internalType": "uint256",
          "name": "_startTime",
          "type": "uint256"
        },
        {
          "internalType": "uint256",
          "name": "_duration",
          "type": "uint256"
        }
      ],
      "name": "setTime",
      "outputs": [],
      "stateMutability": "nonpayable",
      "type": "function"
    },
    {
      "inputs": [],
      "name": "unpause",
      "outputs": [],
      "stateMutability": "nonpayable",
      "type": "function"
    },
    {
      "inputs": [
        {
          "internalType": "address",
          "name": "_tokenContractAddress",
          "type": "address"
        }
      ],
      "name": "withdrawAmountRaised",
      "outputs": [],
      "stateMutability": "payable",
      "type": "function"
    }
  ],
  "bytecode": "0x60e06040523480156200001157600080fd5b50604051620041053803806200410583398101604081905262000034916200008f565b6000805460ff1916905560018055600280546001600160a01b031916331790556001600160a01b0390811660c05290811660a05216608052620000d9565b80516001600160a01b03811681146200008a57600080fd5b919050565b600080600060608486031215620000a557600080fd5b620000b08462000072565b9250620000c06020850162000072565b9150620000d06040850162000072565b90509250925092565b60805160a05160c051613fd2620001336000396000818161046101528181610f62015281816110210152818161104c01526110e801526000818161028e01526110c50152600081816101b90152610fff0152613fd26000f3fe60806040526004361061016d5760003560e01c80639096675b116100c75780639096675b1461037c5780639e53df5b146103a9578063a2a7a80e146103e1578063ab30caba14610401578063ad5c46481461044f578063adb2b14514610483578063b482741d146104a3578063b556ec0f146104c3578063ba4641ba146104e3578063bc18e13614610503578063bc9929ef14610523578063d32e1b4914610550578063dd3f260914610570578063dde17a4d14610590578063df8de3e7146105b057600080fd5b806303f9c7931461017257806317e3f8fb1461018757806326dc8963146101a75780633d3a9ec7146101f15780633f4ba83a14610211578063455ca9bd146102265780635c975abb146102465780636023675b146102695780636405ebae1461027c578063696c58c4146102b057806369e15404146102d05780636a072cd1146102f95780636db8c06f146103275780638456cb59146103475780638f15bd351461035c575b600080fd5b6101856101803660046139c5565b6105d0565b005b34801561019357600080fd5b506101856101a23660046139e2565b6108e2565b3480156101b357600080fd5b506101db7f000000000000000000000000000000000000000000000000000000000000000081565b6040516101e89190613a24565b60405180910390f35b3480156101fd57600080fd5b5061018561020c3660046139c5565b610a21565b34801561021d57600080fd5b506101856111a4565b34801561023257600080fd5b506101856102413660046139c5565b6111d9565b34801561025257600080fd5b5060005460ff1660405190151581526020016101e8565b6101856102773660046139c5565b6114b2565b34801561028857600080fd5b506101db7f000000000000000000000000000000000000000000000000000000000000000081565b3480156102bc57600080fd5b506101856102cb3660046139c5565b6116b1565b3480156102dc57600080fd5b506102e5606481565b60405162ffffff90911681526020016101e8565b34801561030557600080fd5b506103196103143660046139c5565b6119b6565b6040519081526020016101e8565b34801561033357600080fd5b506101856103423660046139c5565b611b80565b34801561035357600080fd5b50610185611cd6565b34801561036857600080fd5b50610185610377366004613a50565b611d09565b34801561038857600080fd5b5061039c6103973660046139c5565b611f54565b6040516101e89190613b1f565b3480156103b557600080fd5b506103196103c4366004613c3f565b600460209081526000928352604080842090915290825290205481565b3480156103ed57600080fd5b506101856103fc366004613c78565b61217c565b34801561040d57600080fd5b5061044161041c3660046139c5565b600760205260009081526040902080546001909101546001600160a01b039091169082565b6040516101e8929190613cad565b34801561045b57600080fd5b506101db7f000000000000000000000000000000000000000000000000000000000000000081565b34801561048f57600080fd5b5061031961049e3660046139c5565b61228b565b3480156104af57600080fd5b506103196104be3660046139c5565b61240c565b3480156104cf57600080fd5b506103196104de3660046139c5565b6125a3565b3480156104ef57600080fd5b506101856104fe3660046139c5565b61275a565b34801561050f57600080fd5b5061031961051e3660046139c5565b612805565b34801561052f57600080fd5b5061054361053e3660046139c5565b612985565b6040516101e89190613cc6565b34801561055c57600080fd5b5061018561056b3660046139c5565b612b05565b34801561057c57600080fd5b5061031961058b3660046139c5565b612c76565b34801561059c57600080fd5b506002546101db906001600160a01b031681565b3480156105bc57600080fd5b506101856105cb3660046139c5565b612df6565b806001600160a01b0381166105f85760405163333a698160e01b815260040160405180910390fd5b61060061319b565b6106086131c5565b6001600160a01b0382166000908152600660205260408120600a8101549091600160301b90910460ff161515900361065357604051637701967760e01b815260040160405180910390fd5b8060060154421015610678576040516366b08f7f60e01b815260040160405180910390fd5b80600501548160080154101580610693575080600701544210155b156106b15760405163b946329760e01b815260040160405180910390fd5b80600101543410156106d65760405163c6809b4160e01b815260040160405180910390fd5b60028101546001600160a01b038416600090815260046020908152604080832033845290915290205461070a903490613d29565b11156107295760405163dd4d5ff160e01b815260040160405180910390fd5b60088101546005820154349161073e91613d3c565b81111561077e57816008015482600501546107599190613d3c565b604051630e4f5bc560e41b815260040161077591815260200190565b60405180910390fd5b6001600160a01b03841660009081526004602090815260408083203384529091529020546107ad908290613d29565b6001600160a01b038516600090815260046020908152604080832033845290915290205560088201546107e1908290613d29565b60088301556000805b600b84015481101561084a57336001600160a01b031684600b01828154811061081557610815613d4f565b6000918252602090912001546001600160a01b031603610838576001915061084a565b8061084281613d65565b9150506107ea565b508061087857600b83018054600181018255600091825260209091200180546001600160a01b031916331790555b6001600160a01b038516600081815260046020908152604080832033808552908352928190205490519081529192917fb826c83e0c6778bf4e6accf36f92992ce435eb7ea7e4b214fdd77cc46e418baa910160405180910390a35050506108de60018055565b5050565b6001600160a01b03838116600090815260066020526040902054849116331461091e57604051637c2411e960e01b815260040160405180910390fd5b6001600160a01b0384166000908152600660205260409020600a810154600160301b900460ff1615156001036109675760405163abd34a9760e01b815260040160405180910390fd5b4284101561098857604051639519947b60e01b815260040160405180910390fd5b61012c8310156109ab5760405163f5bacd3f60e01b815260040160405180910390fd5b600a8101805460ff60301b1916600160301b179055600681018490556109d18385613d29565b60078201557fdf398ca9f8d83423397b9e445f382f1bb1c77b697f88dc451d46f46a3270637784610a028582613d29565b6040805192835260208301919091520160405180910390a15050505050565b6001600160a01b038181166000908152600660205260409020548291163314610a5d57604051637c2411e960e01b815260040160405180910390fd5b6001600160a01b0380831660009081526006602081815260408084208151610220810183528154871681526001820154818501526002820154818401526003820154606082015260048201546080820152600582015460a08201529381015460c0850152600781015460e085015260088101546101008501526009810154610120850152600a81015462ffffff808216610140870152630100000082041661016086015260ff600160301b820481161515610180870152600160381b82041615156101a0860152600160401b90049095166101c0840152600b850180548251818502810185019093528083528896936101e0860193929190830182828015610b8e57602002820191906000526020600020905b81546001600160a01b03168152600190910190602001808311610b70575b5050509183525050600c919091015462ffffff166020909101526101808101519091501515600003610bd357604051637701967760e01b815260040160405180910390fd5b8060a00151816101000151108015610bee57508060e0015142105b15610c0c5760405163ae156a3160e01b815260040160405180910390fd5b6001600160a01b038481166000908152600760205260409020541615610c6b5760405162461bcd60e51b8152602060048201526014602482015273141bdbdb08105b1c9958591e4818dc99585d195960621b6044820152606401610775565b6001600160a01b0380851660009081526006602081815260408084208151610220810183528154871681526001820154818501526002820154818401526003820154606082015260048201546080820152600582015460a08201529381015460c0850152600781015460e085015260088101546101008501526009810154610120850152600a81015462ffffff808216610140870152630100000082041661016086015260ff600160301b820481161515610180870152600160381b82041615156101a0860152600160401b90049095166101c0840152600b85018054825181850281018501909352808352949593946101e0860193830182828015610d9a57602002820191906000526020600020905b81546001600160a01b03168152600190910190602001808311610d7c575b5050509183525050600c919091015462ffffff1660209091015260808101516101008201519192501115610de157604051633dfabac760e01b815260040160405180910390fd5b600061271062ffffff1682610160015162ffffff16836101000151610e069190613d7e565b610e109190613dab565b9050600061271062ffffff1683610140015162ffffff168460600151610e369190613d7e565b610e409190613dab565b905081471015610e925760405162461bcd60e51b815260206004820152601c60248201527f496e73756666696369656e742045544820696e20636f6e7472616374000000006044820152606401610775565b6040516370a0823160e01b815281906001600160a01b038916906370a0823190610ec0903090600401613a24565b602060405180830381865afa158015610edd573d6000803e3d6000fd5b505050506040513d601f19601f82011682018060405250810190610f019190613dcd565b1015610f5e5760405162461bcd60e51b815260206004820152602660248201527f496e73756666696369656e7420746f6b656e2062616c616e636520696e20636f6044820152651b9d1c9858dd60d21b6064820152608401610775565b60007f00000000000000000000000000000000000000000000000000000000000000006001600160a01b0316886001600160a01b03161015610fcb57610fa3826131e9565b610fac846131e9565b610fba90600160601b613d7e565b610fc49190613dab565b9050610ff8565b610fd4836131e9565b610fdd836131e9565b610feb90600160601b613d7e565b610ff59190613dab565b90505b60006110487f00000000000000000000000000000000000000000000000000000000000000008a7f00000000000000000000000000000000000000000000000000000000000000006064866132d1565b90507f00000000000000000000000000000000000000000000000000000000000000006001600160a01b031663d0e30db0856040518263ffffffff1660e01b81526004016000604051808303818588803b1580156110a557600080fd5b505af11580156110b9573d6000803e3d6000fd5b5050505050600061110f7f00000000000000000000000000000000000000000000000000000000000000008b867f00000000000000000000000000000000000000000000000000000000000000008960646133f7565b6040805180820182526001600160a01b03858116825260208083018581528f83166000908152600790925290849020925183546001600160a01b031916921691909117825551600190910155519091507ff8a0462f666b427ea753848be7e91f9ce413975906f6f39950be296ca9a4d52490611190908c9085908590613de6565b60405180910390a150505050505050505050565b6002546001600160a01b031633146111cf5760405163c3a7100d60e01b815260040160405180910390fd5b6111d7613534565b565b806001600160a01b0381166112015760405163333a698160e01b815260040160405180910390fd5b6001600160a01b03828116600090815260066020526040902054839116331461123d57604051637c2411e960e01b815260040160405180910390fd5b6001600160a01b0380841660009081526006602081815260408084208151610220810183528154871681526001820154818501526002820154818401526003820154606082015260048201546080820152600582015460a08201529381015460c0850152600781015460e085015260088101546101008501526009810154610120850152600a81015462ffffff808216610140870152630100000082041661016086015260ff600160301b820481161515610180870152600160381b82041615156101a0860152600160401b90049095166101c0840152600b850180548251818502810185019093528083528996936101e086019392919083018282801561136e57602002820191906000526020600020905b81546001600160a01b03168152600190910190602001808311611350575b5050509183525050600c919091015462ffffff1660209091015261018081015190915015156000036113b357604051637701967760e01b815260040160405180910390fd5b8060a001518161010001511080156113ce57508060e0015142105b156113ec5760405163ae156a3160e01b815260040160405180910390fd5b6113f461319b565b6001600160a01b03851660009081526006602052604090206004810154600882015410611434576040516321ac189960e01b815260040160405180910390fd5b600a810154600160381b900460ff161561146157604051636507689f60e01b815260040160405180910390fd5b600a8101805460ff60381b1916600160381b1790556114a16114803390565b6003830154600a840154600160401b90046001600160a01b03169190613580565b506114ab60018055565b5050505050565b806001600160a01b0381166114da5760405163333a698160e01b815260040160405180910390fd5b6001600160a01b03828116600090815260066020526040902054839116331461151657604051637c2411e960e01b815260040160405180910390fd5b61151e6131c5565b61152661319b565b6001600160a01b038316600090815260066020526040902060048101546008820154101561156757604051633dfabac760e01b815260040160405180910390fd5b600a810154600160381b900460ff161561159457604051636507689f60e01b815260040160405180910390fd5b806005015481600801541080156115ae5750806007015442105b156115cc57604051631fd7ec5560e11b815260040160405180910390fd5b600a8101546000906115ec906301000000900462ffffff16612710613e0a565b62ffffff169050600061271062ffffff1682846008015461160d9190613d7e565b6116179190613dab565b600060088501819055600a8501805460ff60381b1916600160381b17905560405191925090339083908381818185875af1925050503d8060008114611678576040519150601f19603f3d011682016040523d82523d6000602084013e61167d565b606091505b505090508061169f57604051636473f19160e11b815260040160405180910390fd5b505050506116ac60018055565b505050565b806001600160a01b0381166116d95760405163333a698160e01b815260040160405180910390fd5b6001600160a01b0380831660009081526006602081815260408084208151610220810183528154871681526001820154818501526002820154818401526003820154606082015260048201546080820152600582015460a08201529381015460c0850152600781015460e085015260088101546101008501526009810154610120850152600a81015462ffffff808216610140870152630100000082041661016086015260ff600160301b820481161515610180870152600160381b82041615156101a0860152600160401b90049095166101c0840152600b850180548251818502810185019093528083528896936101e086019392919083018282801561180a57602002820191906000526020600020905b81546001600160a01b031681526001909101906020018083116117ec575b5050509183525050600c919091015462ffffff16602090910152610180810151909150151560000361184f57604051637701967760e01b815260040160405180910390fd5b8060a0015181610100015110801561186a57508060e0015142105b156118885760405163ae156a3160e01b815260040160405180910390fd5b61189061319b565b6001600160a01b038416600090815260046020908152604080832033845290915281205490036118d357604051630c4ac8f160e11b815260040160405180910390fd5b6001600160a01b03841660009081526006602052604090206004810154600882015410611913576040516321ac189960e01b815260040160405180910390fd5b6001600160a01b038516600090815260046020908152604080832033808552925280832080549084905590519092919083908381818185875af1925050503d806000811461197d576040519150601f19603f3d011682016040523d82523d6000602084013e611982565b606091505b50509050806119a457604051636473f19160e11b815260040160405180910390fd5b5050506119b060018055565b50505050565b6001600160a01b0380821660009081526006602081815260408084208151610220810183528154871681526001820154818501526002820154818401526003820154606082015260048201546080820152600582015460a08201529381015460c0850152600781015460e085015260088101546101008501526009810154610120850152600a81015462ffffff808216610140870152630100000082041661016086015260ff600160301b820481161515610180870152600160381b82041615156101a0860152600160401b90049095166101c0840152600b850180548251818502810185019093528083529495869590936101e0860193929190830182828015611aea57602002820191906000526020600020905b81546001600160a01b03168152600190910190602001808311611acc575b5050509183525050600c919091015462ffffff166020909101526101c08101516040516370a0823160e01b81529192506001600160a01b0316906370a0823190611b38903090600401613a24565b602060405180830381865afa158015611b55573d6000803e3d6000fd5b505050506040513d601f19601f82011682018060405250810190611b799190613dcd565b9392505050565b6002546001600160a01b03163314611bab5760405163c3a7100d60e01b815260040160405180910390fd5b806001600160a01b038116611bd35760405163333a698160e01b815260040160405180910390fd5b6001600160a01b0382166000908152600660205260408120600a8101549091600160301b90910460ff1615159003611c1e57604051637701967760e01b815260040160405180910390fd5b600a8101805460ff60301b19169081905560006007830181905582546040516370a0823160e01b81526001600160a01b0391821693600160401b9004909116906370a0823190611c72903090600401613a24565b602060405180830381865afa158015611c8f573d6000803e3d6000fd5b505050506040513d601f19601f82011682018060405250810190611cb39190613dcd565b600a8401549091506114ab90600160401b90046001600160a01b03168383613580565b6002546001600160a01b03163314611d015760405163c3a7100d60e01b815260040160405180910390fd5b6111d76135d8565b896001600160a01b038116611d315760405163333a698160e01b815260040160405180910390fd5b611d396131c5565b6001600160a01b03808c166000818152600660205260409020600a0154600160401b900490911603611d7e5760405163abd34a9760e01b815260040160405180910390fd5b89600003611d9f5760405163dcb0c5ef60e01b815260040160405180910390fd5b89891015611dc05760405163010fbf2360e31b815260040160405180910390fd5b858710611de05760405163e41a940760e01b815260040160405180910390fd5b85891115611e0157604051636733481160e01b815260040160405180910390fd5b611e166001600160a01b038c1633308b613615565b6001600160a01b038b16600081815260066020526040902080546001600160a01b03191633178155600a81018054600183018e9055600283018d9055600383018c9055600483018b9055600583018a905562ffffff88811663010000000265ffffffffffff19600160401b9096029590951667ffff000000000001600160e01b031990921691909117908916179290921790915583151580611eb757508215155b15611ec757611ec78c85856108e2565b336001600160a01b038d167fff5f6cd49ee5660cd8e419e17ac73a06d7c4f60bbca48ee6138b18e294e8f8d58a8a8f8f8f611f028b8d613d29565b604080519687526020870195909552938501929092526060840152608083015260a082015262ffffff808a1660c08301528a1660e08201526101000160405180910390a3505050505050505050505050565b61200060405180610220016040528060006001600160a01b03168152602001600081526020016000815260200160008152602001600081526020016000815260200160008152602001600081526020016000815260200160008152602001600062ffffff168152602001600062ffffff16815260200160001515815260200160001515815260200160006001600160a01b0316815260200160608152602001600062ffffff1681525090565b816001600160a01b0381166120285760405163333a698160e01b815260040160405180910390fd5b6001600160a01b038084166000908152600660208181526040928390208351610220810185528154861681526001820154818401526002820154818601526003820154606082015260048201546080820152600582015460a08201529281015460c0840152600781015460e084015260088101546101008401526009810154610120840152600a81015462ffffff808216610140860152630100000082041661016085015260ff600160301b820481161515610180860152600160381b82041615156101a0850152600160401b90049094166101c0830152600b840180548451818402810184019095528085529294936101e0860193909283018282801561215957602002820191906000526020600020905b81546001600160a01b0316815260019091019060200180831161213b575b5050509183525050600c919091015462ffffff1660209091015291505b50919050565b6001600160a01b0382811660009081526006602052604090205483911633146121b857604051637c2411e960e01b815260040160405180910390fd5b6103e88262ffffff1611156122195760405162461bcd60e51b815260206004820152602160248201527f70657263656e746167652073686f756c64206265206c657373207468616e20316044820152600360fc1b6064820152608401610775565b6001600160a01b038316600081815260066020908152604091829020600c8101805462ffffff191662ffffff8816908117909155835194855291840191909152917f5dfecc57b197aefad4c3982f96eee4bdbdccdd5da095b52def76a6798035187f910160405180910390a150505050565b6000816001600160a01b0381166122b55760405163333a698160e01b815260040160405180910390fd5b6001600160a01b0380841660009081526006602081815260408084208151610220810183528154871681526001820154818501526002820154818401526003820154606082015260048201546080820152600582015460a08201529381015460c0850152600781015460e085015260088101546101008501526009810154610120850152600a81015462ffffff808216610140870152630100000082041661016086015260ff600160301b820481161515610180870152600160381b82041615156101a0860152600160401b90049095166101c0840152600b85018054825181850281018501909352808352949593946101e08601938301828280156123e457602002820191906000526020600020905b81546001600160a01b031681526001909101906020018083116123c6575b5050509183525050600c919091015462ffffff166020909101526101e0015151949350505050565b6000816001600160a01b0381166124365760405163333a698160e01b815260040160405180910390fd5b6001600160a01b0380841660009081526006602081815260408084208151610220810183528154871681526001820154818501526002820154818401526003820154606082015260048201546080820152600582015460a08201529381015460c0850152600781015460e085015260088101546101008501526009810154610120850152600a81015462ffffff808216610140870152630100000082041661016086015260ff600160301b820481161515610180870152600160381b82041615156101a0860152600160401b90049095166101c0840152600b85018054825181850281018501909352808352949593946101e086019383018282801561256557602002820191906000526020600020905b81546001600160a01b03168152600190910190602001808311612547575b5050509183525050600c919091015462ffffff16602090910152610120810151606082015191925060009161259a9190613d3c565b95945050505050565b6000816001600160a01b0381166125cd5760405163333a698160e01b815260040160405180910390fd5b6001600160a01b0380841660009081526006602081815260408084208151610220810183528154871681526001820154818501526002820154818401526003820154606082015260048201546080820152600582015460a08201529381015460c0850152600781015460e085015260088101546101008501526009810154610120850152600a81015462ffffff808216610140870152630100000082041661016086015260ff600160301b820481161515610180870152600160381b82041615156101a0860152600160401b90049095166101c0840152600b85018054825181850281018501909352808352949593946101e08601938301828280156126fc57602002820191906000526020600020905b81546001600160a01b031681526001909101906020018083116126de575b5050509183525050600c919091015462ffffff1660209091015260e0810151909150421061272e576000925050612176565b6000428260e001516127409190613d3c565b9050600061274f603c83613dab565b945061217692505050565b6002546001600160a01b031633146127855760405163c3a7100d60e01b815260040160405180910390fd5b61278d6131c5565b6001600160a01b0381166127b457604051639fabe1c160e01b815260040160405180910390fd5b6002546001600160a01b03908116908216036127e357604051633343452d60e21b815260040160405180910390fd5b600280546001600160a01b0319166001600160a01b0392909216919091179055565b6000816001600160a01b03811661282f5760405163333a698160e01b815260040160405180910390fd5b6001600160a01b0380841660009081526006602081815260408084208151610220810183528154871681526001820154818501526002820154818401526003820154606082015260048201546080820152600582015460a08201529381015460c0850152600781015460e085015260088101546101008501526009810154610120850152600a81015462ffffff808216610140870152630100000082041661016086015260ff600160301b820481161515610180870152600160381b82041615156101a0860152600160401b90049095166101c0840152600b85018054825181850281018501909352808352949593946101e086019383018282801561295e57602002820191906000526020600020905b81546001600160a01b03168152600190910190602001808311612940575b5050509183525050600c919091015462ffffff166020909101526101200151949350505050565b6060816001600160a01b0381166129af5760405163333a698160e01b815260040160405180910390fd5b6001600160a01b0380841660009081526006602081815260408084208151610220810183528154871681526001820154818501526002820154818401526003820154606082015260048201546080820152600582015460a08201529381015460c0850152600781015460e085015260088101546101008501526009810154610120850152600a81015462ffffff808216610140870152630100000082041661016086015260ff600160301b820481161515610180870152600160381b82041615156101a0860152600160401b90049095166101c0840152600b85018054825181850281018501909352808352949593946101e0860193830182828015612ade57602002820191906000526020600020905b81546001600160a01b03168152600190910190602001808311612ac0575b5050509183525050600c919091015462ffffff166020909101526101e00151949350505050565b806001600160a01b038116612b2d5760405163333a698160e01b815260040160405180910390fd5b612b3561319b565b6001600160a01b0382166000908152600460209081526040808320600683528184203385529281905290832054909203612b8257604051630c4ac8f160e11b815260040160405180910390fd5b600c81015433600090815260208490526040812054909161271091612bac9162ffffff1690613d7e565b612bb69190613dab565b33600090815260208590526040902054612bd09190613d3c565b3360009081526020859052604081208190556008840180549293508392909190612bfb908490613d3c565b9091555050604051600090339083908381818185875af1925050503d8060008114612c42576040519150601f19603f3d011682016040523d82523d6000602084013e612c47565b606091505b5050905080612c6957604051636473f19160e11b815260040160405180910390fd5b505050506108de60018055565b6000816001600160a01b038116612ca05760405163333a698160e01b815260040160405180910390fd5b6001600160a01b0380841660009081526006602081815260408084208151610220810183528154871681526001820154818501526002820154818401526003820154606082015260048201546080820152600582015460a08201529381015460c0850152600781015460e085015260088101546101008501526009810154610120850152600a81015462ffffff808216610140870152630100000082041661016086015260ff600160301b820481161515610180870152600160381b82041615156101a0860152600160401b90049095166101c0840152600b85018054825181850281018501909352808352949593946101e0860193830182828015612dcf57602002820191906000526020600020905b81546001600160a01b03168152600190910190602001808311612db1575b5050509183525050600c919091015462ffffff166020909101526101000151949350505050565b806001600160a01b038116612e1e5760405163333a698160e01b815260040160405180910390fd5b6001600160a01b0380831660009081526006602081815260408084208151610220810183528154871681526001820154818501526002820154818401526003820154606082015260048201546080820152600582015460a08201529381015460c0850152600781015460e085015260088101546101008501526009810154610120850152600a81015462ffffff808216610140870152630100000082041661016086015260ff600160301b820481161515610180870152600160381b82041615156101a0860152600160401b90049095166101c0840152600b850180548251818502810185019093528083528896936101e0860193929190830182828015612f4f57602002820191906000526020600020905b81546001600160a01b03168152600190910190602001808311612f31575b5050509183525050600c919091015462ffffff166020909101526101808101519091501515600003612f9457604051637701967760e01b815260040160405180910390fd5b8060a00151816101000151108015612faf57508060e0015142105b15612fcd5760405163ae156a3160e01b815260040160405180910390fd5b612fd561319b565b6001600160a01b038416600090815260056020908152604080832033845290915290205460ff161561301a57604051631567543160e01b815260040160405180910390fd5b6001600160a01b038416600090815260066020526040902060048101546008820154101561305b57604051633dfabac760e01b815260040160405180910390fd5b6001600160a01b0385166000908152600460209081526040808320338452909152812054908190036130a057604051630c4ac8f160e11b815260040160405180910390fd5b600a8201546000906130b99062ffffff16612710613e0a565b62ffffff169050600061271062ffffff168285600301546130da9190613d7e565b6130e49190613dab565b90506000846008015482856130f99190613d7e565b6131039190613dab565b90508060000361312657604051630c4ac8f160e11b815260040160405180910390fd5b6001600160a01b03891660009081526005602090815260408083203384529091528120805460ff19166001179055600986018054839290613168908490613d29565b9091555050600a85015461318d90600160401b90046001600160a01b03163383613580565b50505050506119b060018055565b6002600154036131be57604051633ee5aeb560e01b815260040160405180910390fd5b6002600155565b60005460ff16156111d75760405163d93c066560e01b815260040160405180910390fd5b6000816000036131fb57506000919050565b600060016132088461363d565b901c6001901b9050600181848161322157613221613d95565b048201901c9050600181848161323957613239613d95565b048201901c9050600181848161325157613251613d95565b048201901c9050600181848161326957613269613d95565b048201901c9050600181848161328157613281613d95565b048201901c9050600181848161329957613299613d95565b048201901c905060018184816132b1576132b1613d95565b048201901c9050611b79818285816132cb576132cb613d95565b046136d2565b60006001600160a01b03851615806132f057506001600160a01b038416155b1561330e5760405163aa1ed18b60e01b815260040160405180910390fd5b60405163a167129560e01b81526001600160a01b038681166004830152858116602483015262ffffff8516604483015287169063a1671295906064016020604051808303816000875af1158015613369573d6000803e3d6000fd5b505050506040513d601f19601f8201168201806040525081019061338d9190613e2d565b60405163f637731d60e01b81529091506001600160a01b0382169063f637731d906133bc908590600401613a24565b600060405180830381600087803b1580156133d657600080fd5b505af11580156133ea573d6000803e3d6000fd5b5050505095945050505050565b6000613405868587866136e8565b92985096509450925061341986888761372f565b61342484888561372f565b6000604051806101600160405280886001600160a01b03168152602001866001600160a01b031681526020018462ffffff168152602001620d899f1960020b8152602001620d89a060020b81526020018781526020018581526020016000815260200160008152602001336001600160a01b0316815260200142620186a06134ac9190613d29565b9052604051634418b22b60e11b81529091506000906001600160a01b038a16906388316456906134e0908590600401613e4a565b6080604051808303816000875af11580156134ff573d6000803e3d6000fd5b505050506040513d601f19601f820116820180604052508101906135239190613f00565b50919b9a5050505050505050505050565b61353c613832565b6000805460ff191690557f5db9ee0a495bf2e6ff9c91a7834c1ba4fdd244a5e8aa4e537bd38aeae4b073aa335b6040516135769190613a24565b60405180910390a1565b6116ac83846001600160a01b031663a9059cbb85856040516024016135a6929190613cad565b604051602081830303815290604052915060e01b6020820180516001600160e01b038381831617835250505050613855565b6135e06131c5565b6000805460ff191660011790557f62e78cea01bee320cd4e420270b5ea74000d11b0c9f74754ebdbfc544b05a2586135693390565b6119b084856001600160a01b03166323b872dd8686866040516024016135a693929190613de6565b600080608083901c1561365257608092831c92015b604083901c1561366457604092831c92015b602083901c1561367657602092831c92015b601083901c1561368857601092831c92015b600883901c1561369a57600892831c92015b600483901c156136ac57600492831c92015b600283901c156136be57600292831c92015b600183901c156136cc576001015b92915050565b60008183106136e15781611b79565b5090919050565b600080600080866001600160a01b0316886001600160a01b03161015613718575086925085915084905083613724565b50859250869150839050845b945094509450949050565b600080846001600160a01b031663095ea7b360e01b8585604051602401613757929190613cad565b60408051601f198184030181529181526020820180516001600160e01b03166001600160e01b03199094169390931790925290516137959190613f4b565b6000604051808303816000865af19150503d80600081146137d2576040519150601f19603f3d011682016040523d82523d6000602084013e6137d7565b606091505b50915091508180156138015750805115806138015750808060200190518101906138019190613f7a565b6114ab5760405162461bcd60e51b8152602060048201526002602482015261534160f01b6044820152606401610775565b60005460ff166111d757604051638dfc202b60e01b815260040160405180910390fd5b600061386a6001600160a01b038416836138af565b9050805160001415801561388f57508080602001905181019061388d9190613f7a565b155b156116ac5782604051635274afe760e01b81526004016107759190613a24565b6060611b798383600084600080856001600160a01b031684866040516138d59190613f4b565b60006040518083038185875af1925050503d8060008114613912576040519150601f19603f3d011682016040523d82523d6000602084013e613917565b606091505b5091509150613927868383613931565b9695505050505050565b6060826139465761394182613984565b611b79565b815115801561395d57506001600160a01b0384163b155b1561397d5783604051639996b31560e01b81526004016107759190613a24565b5080611b79565b8051156139945780518082602001fd5b604051630a12f52160e11b815260040160405180910390fd5b50565b6001600160a01b03811681146139ad57600080fd5b6000602082840312156139d757600080fd5b8135611b79816139b0565b6000806000606084860312156139f757600080fd5b8335613a02816139b0565b95602085013595506040909401359392505050565b6001600160a01b03169052565b6001600160a01b0391909116815260200190565b803562ffffff81168114613a4b57600080fd5b919050565b6000806000806000806000806000806101408b8d031215613a7057600080fd5b8a35613a7b816139b0565b995060208b0135985060408b0135975060608b0135965060808b0135955060a08b01359450613aac60c08c01613a38565b9350613aba60e08c01613a38565b92506101008b013591506101208b013590509295989b9194979a5092959850565b600081518084526020808501945080840160005b83811015613b145781516001600160a01b031687529582019590820190600101613aef565b509495945050505050565b60208152613b31602082018351613a17565b602082015160408201526040820151606082015260608201516080820152608082015160a082015260a082015160c082015260c082015160e0820152600060e0830151610100818185015280850151915050610120818185015280850151915050610140818185015280850151915050610160613bb48185018362ffffff169052565b8401519050610180613bcc8482018362ffffff169052565b84015190506101a0613be18482018315159052565b84015190506101c0613bf68482018315159052565b84015190506101e0613c0a84820183613a17565b808501519150506102206102008181860152613c2a610240860184613adb565b95015162ffffff169301929092525090919050565b60008060408385031215613c5257600080fd5b8235613c5d816139b0565b91506020830135613c6d816139b0565b809150509250929050565b60008060408385031215613c8b57600080fd5b8235613c96816139b0565b9150613ca460208401613a38565b90509250929050565b6001600160a01b03929092168252602082015260400190565b6020808252825182820181905260009190848201906040850190845b81811015613d075783516001600160a01b031683529284019291840191600101613ce2565b50909695505050505050565b634e487b7160e01b600052601160045260246000fd5b808201808211156136cc576136cc613d13565b818103818111156136cc576136cc613d13565b634e487b7160e01b600052603260045260246000fd5b600060018201613d7757613d77613d13565b5060010190565b80820281158282048414176136cc576136cc613d13565b634e487b7160e01b600052601260045260246000fd5b600082613dc857634e487b7160e01b600052601260045260246000fd5b500490565b600060208284031215613ddf57600080fd5b5051919050565b6001600160a01b039384168152919092166020820152604081019190915260600190565b62ffffff828116828216039080821115613e2657613e26613d13565b5092915050565b600060208284031215613e3f57600080fd5b8151611b79816139b0565b600061016082019050613e5e828451613a17565b6020830151613e706020840182613a17565b506040830151613e87604084018262ffffff169052565b506060830151613e9c606084018260020b9052565b506080830151613eb1608084018260020b9052565b5060a083015160a083015260c083015160c083015260e083015160e083015261010080840151818401525061012080840151613eef82850182613a17565b505061014092830151919092015290565b60008060008060808587031215613f1657600080fd5b845160208601519094506001600160801b0381168114613f3557600080fd5b6040860151606090960151949790965092505050565b6000825160005b81811015613f6c5760208186018101518583015201613f52565b506000920191825250919050565b600060208284031215613f8c57600080fd5b81518015158114611b7957600080fdfea26469706673582212200cd9a3d67df2e1e70fcd57e4ff30a65256f17cff94a63f29a683236ecd8e46ec64736f6c63430008140033",
  "linkReferences": {},
  "deployedLinkReferences": {}
}