{
  "_format": "hh-sol-artifact-1",
  "contractName": "Vester",
  "sourceName": "contracts/Vester.sol",
  "abi": [
    {
      "anonymous": false,
      "inputs": [
        {
          "indexed": false,
          "internalType": "uint256",
          "name": "vestingId",
          "type": "uint256"
        },
        {
          "indexed": false,
          "internalType": "address",
          "name": "receiver",
          "type": "address"
        },
        {
          "indexed": false,
          "internalType": "uint256",
          "name": "amount",
          "type": "uint256"
        },
        {
          "indexed": false,
          "internalType": "uint256",
          "name": "released",
          "type": "uint256"
        },
        {
          "indexed": false,
          "internalType": "bool",
          "name": "revoked",
          "type": "bool"
        }
      ],
      "name": "ReceiversData",
      "type": "event"
    },
    {
      "anonymous": false,
      "inputs": [
        {
          "indexed": false,
          "internalType": "uint256",
          "name": "vestingId",
          "type": "uint256"
        },
        {
          "indexed": false,
          "internalType": "address",
          "name": "owner",
          "type": "address"
        },
        {
          "indexed": false,
          "internalType": "address",
          "name": "token",
          "type": "address"
        },
        {
          "indexed": false,
          "internalType": "uint256",
          "name": "totalAmount",
          "type": "uint256"
        },
        {
          "indexed": false,
          "internalType": "uint256",
          "name": "start",
          "type": "uint256"
        },
        {
          "indexed": false,
          "internalType": "uint256",
          "name": "cliff",
          "type": "uint256"
        },
        {
          "indexed": false,
          "internalType": "uint256",
          "name": "duration",
          "type": "uint256"
        },
        {
          "indexed": false,
          "internalType": "uint256",
          "name": "slicePeriodSeconds",
          "type": "uint256"
        },
        {
          "indexed": false,
          "internalType": "bool",
          "name": "revocable",
          "type": "bool"
        }
      ],
      "name": "VestingCreated",
      "type": "event"
    },
    {
      "anonymous": false,
      "inputs": [
        {
          "indexed": false,
          "internalType": "uint256",
          "name": "vestingId",
          "type": "uint256"
        },
        {
          "indexed": false,
          "internalType": "address",
          "name": "receiver",
          "type": "address"
        },
        {
          "indexed": false,
          "internalType": "uint256",
          "name": "returnAmount",
          "type": "uint256"
        },
        {
          "indexed": false,
          "internalType": "uint256",
          "name": "withdrawAmount",
          "type": "uint256"
        },
        {
          "indexed": false,
          "internalType": "bool",
          "name": "revoked",
          "type": "bool"
        }
      ],
      "name": "VestingRevoked",
      "type": "event"
    },
    {
      "anonymous": false,
      "inputs": [
        {
          "indexed": false,
          "internalType": "uint256",
          "name": "vestingId",
          "type": "uint256"
        },
        {
          "indexed": false,
          "internalType": "address",
          "name": "receiver",
          "type": "address"
        },
        {
          "indexed": false,
          "internalType": "uint256",
          "name": "amount",
          "type": "uint256"
        }
      ],
      "name": "WithdrawAmount",
      "type": "event"
    },
    {
      "inputs": [
        {
          "internalType": "address[]",
          "name": "_receivers",
          "type": "address[]"
        },
        {
          "internalType": "address",
          "name": "_token",
          "type": "address"
        },
        {
          "internalType": "uint256[]",
          "name": "_amounts",
          "type": "uint256[]"
        },
        {
          "internalType": "uint256",
          "name": "_start",
          "type": "uint256"
        },
        {
          "internalType": "uint256",
          "name": "_cliff",
          "type": "uint256"
        },
        {
          "internalType": "uint256",
          "name": "_duration",
          "type": "uint256"
        },
        {
          "internalType": "uint256",
          "name": "_slicePeriodSeconds",
          "type": "uint256"
        },
        {
          "internalType": "bool",
          "name": "_revocable",
          "type": "bool"
        }
      ],
      "name": "createVesting",
      "outputs": [],
      "stateMutability": "nonpayable",
      "type": "function"
    },
    {
      "inputs": [
        {
          "internalType": "address",
          "name": "_account",
          "type": "address"
        }
      ],
      "name": "getDepositorsVesting",
      "outputs": [
        {
          "internalType": "uint256[]",
          "name": "",
          "type": "uint256[]"
        }
      ],
      "stateMutability": "view",
      "type": "function"
    },
    {
      "inputs": [
        {
          "internalType": "address",
          "name": "_account",
          "type": "address"
        }
      ],
      "name": "getReceiversVesting",
      "outputs": [
        {
          "internalType": "uint256[]",
          "name": "",
          "type": "uint256[]"
        }
      ],
      "stateMutability": "view",
      "type": "function"
    },
    {
      "inputs": [
        {
          "internalType": "uint256",
          "name": "_vestingId",
          "type": "uint256"
        },
        {
          "internalType": "address",
          "name": "_receiver",
          "type": "address"
        }
      ],
      "name": "getVestingSchedules",
      "outputs": [
        {
          "components": [
            {
              "internalType": "address",
              "name": "owner",
              "type": "address"
            },
            {
              "internalType": "address",
              "name": "token",
              "type": "address"
            },
            {
              "internalType": "uint256",
              "name": "totalAmount",
              "type": "uint256"
            },
            {
              "internalType": "uint256",
              "name": "start",
              "type": "uint256"
            },
            {
              "internalType": "uint256",
              "name": "cliff",
              "type": "uint256"
            },
            {
              "internalType": "uint256",
              "name": "duration",
              "type": "uint256"
            },
            {
              "internalType": "uint256",
              "name": "slicePeriodSeconds",
              "type": "uint256"
            },
            {
              "internalType": "bool",
              "name": "revocable",
              "type": "bool"
            }
          ],
          "internalType": "struct Vester.VestingSchedule",
          "name": "",
          "type": "tuple"
        },
        {
          "components": [
            {
              "internalType": "uint256",
              "name": "amount",
              "type": "uint256"
            },
            {
              "internalType": "uint256",
              "name": "released",
              "type": "uint256"
            },
            {
              "internalType": "bool",
              "name": "revoked",
              "type": "bool"
            }
          ],
          "internalType": "struct Vester.ReceiverData",
          "name": "",
          "type": "tuple"
        }
      ],
      "stateMutability": "view",
      "type": "function"
    },
    {
      "inputs": [
        {
          "internalType": "uint256",
          "name": "_vestingId",
          "type": "uint256"
        },
        {
          "internalType": "address",
          "name": "_receiver",
          "type": "address"
        }
      ],
      "name": "revoke",
      "outputs": [],
      "stateMutability": "nonpayable",
      "type": "function"
    },
    {
      "inputs": [],
      "name": "vestingIds",
      "outputs": [
        {
          "internalType": "uint256",
          "name": "",
          "type": "uint256"
        }
      ],
      "stateMutability": "view",
      "type": "function"
    },
    {
      "inputs": [
        {
          "internalType": "uint256",
          "name": "_vestingId",
          "type": "uint256"
        },
        {
          "internalType": "uint256",
          "name": "_amount",
          "type": "uint256"
        }
      ],
      "name": "withdraw",
      "outputs": [],
      "stateMutability": "nonpayable",
      "type": "function"
    }
  ],
  "bytecode": "0x608060405234801561001057600080fd5b50612c68806100206000396000f3fe608060405234801561001057600080fd5b506004361061007d5760003560e01c8063441a3e701161005b578063441a3e70146100d857806392ae18d6146100f4578063b80eb06714610125578063dd546141146101555761007d565b80630fcb1d131461008257806320d154da1461009e5780633a8afbc1146100ba575b600080fd5b61009c60048036038101906100979190611aae565b610185565b005b6100b860048036038101906100b39190611bc2565b6105c0565b005b6100c2610976565b6040516100cf9190612403565b60405180910390f35b6100f260048036038101906100ed9190611bfe565b61097c565b005b61010e60048036038101906101099190611bc2565b610ccb565b60405161011c9291906123d8565b60405180910390f35b61013f600480360381019061013a9190611a85565b610e8f565b60405161014c9190612154565b60405180910390f35b61016f600480360381019061016a9190611a85565b610f26565b60405161017c9190612154565b60405180910390f35b600083116101c8576040517f08c379a00000000000000000000000000000000000000000000000000000000081526004016101bf906122d8565b60405180910390fd5b6000821161020b576040517f08c379a0000000000000000000000000000000000000000000000000000000008152600401610202906122b8565b60405180910390fd5b8282111561024e576040517f08c379a0000000000000000000000000000000000000000000000000000000008152600401610245906122f8565b60405180910390fd5b82841115610291576040517f08c379a000000000000000000000000000000000000000000000000000000000815260040161028890612298565b60405180910390fd5b428510156102d4576040517f08c379a00000000000000000000000000000000000000000000000000000000081526004016102cb906123b8565b60405180910390fd5b6000878790508b8b90501461031e576040517f08c379a000000000000000000000000000000000000000000000000000000000815260040161031590612218565b60405180910390fd5b60005b8b8b90508110156104cb57600073ffffffffffffffffffffffffffffffffffffffff168c8c8381811061037d577f4e487b7100000000000000000000000000000000000000000000000000000000600052603260045260246000fd5b90506020020160208101906103929190611a85565b73ffffffffffffffffffffffffffffffffffffffff1614156103e9576040517f08c379a00000000000000000000000000000000000000000000000000000000081526004016103e0906121b8565b60405180910390fd5b6000898983818110610424577f4e487b7100000000000000000000000000000000000000000000000000000000600052603260045260246000fd5b905060200201351161046b576040517f08c379a000000000000000000000000000000000000000000000000000000000815260040161046290612198565b60405180910390fd5b8888828181106104a4577f4e487b7100000000000000000000000000000000000000000000000000000000600052603260045260246000fd5b90506020020135826104b691906125f3565b915080806104c390612795565b915050610321565b5060008973ffffffffffffffffffffffffffffffffffffffff166323b872dd3330856040518463ffffffff1660e01b815260040161050b939291906120f4565b602060405180830381600087803b15801561052557600080fd5b505af1158015610539573d6000803e3d6000fd5b505050506040513d601f19601f8201168201806040525081019061055d9190611b99565b90508061059f576040517f08c379a000000000000000000000000000000000000000000000000000000000815260040161059690612358565b60405180910390fd5b6105b28c8c8c8c8c8c8c8c8c8c8c610fbd565b505050505050505050505050565b600054821115610605576040517f08c379a00000000000000000000000000000000000000000000000000000000081526004016105fc90612378565b60405180910390fd5b600060026000848152602001908152602001600020604051806101000160405290816000820160009054906101000a900473ffffffffffffffffffffffffffffffffffffffff1673ffffffffffffffffffffffffffffffffffffffff1673ffffffffffffffffffffffffffffffffffffffff1681526020016001820160009054906101000a900473ffffffffffffffffffffffffffffffffffffffff1673ffffffffffffffffffffffffffffffffffffffff1673ffffffffffffffffffffffffffffffffffffffff16815260200160028201548152602001600382015481526020016004820154815260200160058201548152602001600682015481526020016007820160009054906101000a900460ff16151515158152505090503373ffffffffffffffffffffffffffffffffffffffff16816000015173ffffffffffffffffffffffffffffffffffffffff1614610793576040517f08c379a000000000000000000000000000000000000000000000000000000000815260040161078a90612238565b60405180910390fd5b6000600160008054815260200190815260200160002060008473ffffffffffffffffffffffffffffffffffffffff1673ffffffffffffffffffffffffffffffffffffffff1681526020019081526020016000209050600081600001541415610830576040517f08c379a000000000000000000000000000000000000000000000000000000000815260040161082790612318565b60405180910390fd5b8160e00151610874576040517f08c379a000000000000000000000000000000000000000000000000000000000815260040161086b906121d8565b60405180910390fd5b8060020160009054906101000a900460ff16156108c6576040517f08c379a00000000000000000000000000000000000000000000000000000000081526004016108bd906121f8565b60405180910390fd5b60006108d3838587611405565b90508082600101546108e591906125f3565b826001018190555060008260010154846040015161090391906126d4565b905060018360020160006101000a81548160ff0219169083151502179055507f89499599707eb417e0ca2a9683ae18a5bb274697b925109a7dfd27f3c7020bf686868385600160405161095a959493929190612535565b60405180910390a161096e8486848461157a565b505050505050565b60005481565b6000548211156109c1576040517f08c379a00000000000000000000000000000000000000000000000000000000081526004016109b890612378565b60405180910390fd5b600060026000848152602001908152602001600020604051806101000160405290816000820160009054906101000a900473ffffffffffffffffffffffffffffffffffffffff1673ffffffffffffffffffffffffffffffffffffffff1673ffffffffffffffffffffffffffffffffffffffff1681526020016001820160009054906101000a900473ffffffffffffffffffffffffffffffffffffffff1673ffffffffffffffffffffffffffffffffffffffff1673ffffffffffffffffffffffffffffffffffffffff16815260200160028201548152602001600382015481526020016004820154815260200160058201548152602001600682015481526020016007820160009054906101000a900460ff161515151581525050905060006001600085815260200190815260200160002060003373ffffffffffffffffffffffffffffffffffffffff1673ffffffffffffffffffffffffffffffffffffffff168152602001908152602001600020600001541415610b74576040517f08c379a0000000000000000000000000000000000000000000000000000000008152600401610b6b90612318565b60405180910390fd5b6000610b81823386611405565b9050828111610bc5576040517f08c379a0000000000000000000000000000000000000000000000000000000008152600401610bbc90612258565b60405180910390fd5b82600160008054815260200190815260200160002060003373ffffffffffffffffffffffffffffffffffffffff1673ffffffffffffffffffffffffffffffffffffffff16815260200190815260200160002060010154610c2591906125f3565b600160008054815260200190815260200160002060003373ffffffffffffffffffffffffffffffffffffffff1673ffffffffffffffffffffffffffffffffffffffff168152602001908152602001600020600101819055507f741e0dffe6faa24390472267f89eaf7f0974f927270a2b3a668ea3dc0ca40639843385604051610cb0939291906124ab565b60405180910390a1610cc5823385600061157a565b50505050565b610cd3611907565b610cdb61197a565b60026000858152602001908152602001600020600160008054815260200190815260200160002060008573ffffffffffffffffffffffffffffffffffffffff1673ffffffffffffffffffffffffffffffffffffffff16815260200190815260200160002081604051806101000160405290816000820160009054906101000a900473ffffffffffffffffffffffffffffffffffffffff1673ffffffffffffffffffffffffffffffffffffffff1673ffffffffffffffffffffffffffffffffffffffff1681526020016001820160009054906101000a900473ffffffffffffffffffffffffffffffffffffffff1673ffffffffffffffffffffffffffffffffffffffff1673ffffffffffffffffffffffffffffffffffffffff16815260200160028201548152602001600382015481526020016004820154815260200160058201548152602001600682015481526020016007820160009054906101000a900460ff16151515158152505091508060405180606001604052908160008201548152602001600182015481526020016002820160009054906101000a900460ff1615151515815250509050915091509250929050565b6060600460008373ffffffffffffffffffffffffffffffffffffffff1673ffffffffffffffffffffffffffffffffffffffff168152602001908152602001600020805480602002602001604051908101604052809291908181526020018280548015610f1a57602002820191906000526020600020905b815481526020019060010190808311610f06575b50505050509050919050565b6060600360008373ffffffffffffffffffffffffffffffffffffffff1673ffffffffffffffffffffffffffffffffffffffff168152602001908152602001600020805480602002602001604051908101604052809291908181526020018280548015610fb157602002820191906000526020600020905b815481526020019060010190808311610f9d575b50505050509050919050565b6000600260008060008154610fd190612795565b91905081905581526020019081526020016000209050338160000160006101000a81548173ffffffffffffffffffffffffffffffffffffffff021916908373ffffffffffffffffffffffffffffffffffffffff160217905550898160010160006101000a81548173ffffffffffffffffffffffffffffffffffffffff021916908373ffffffffffffffffffffffffffffffffffffffff160217905550818160020181905550868160030181905550858160040181905550848160050181905550838160060181905550828160070160006101000a81548160ff0219169083151502179055507f9acb7e8d7eb831bb21cb28fd36ed3dd3f1899b7bb115ee724202e391afbd9ff8600054338c858b8b8b8b8b6040516110f79998979695949392919061241e565b60405180910390a160005b8c8c905081101561138e576000600160008054815260200190815260200160002060008f8f8581811061115e577f4e487b7100000000000000000000000000000000000000000000000000000000600052603260045260246000fd5b90506020020160208101906111739190611a85565b73ffffffffffffffffffffffffffffffffffffffff1673ffffffffffffffffffffffffffffffffffffffff16815260200190815260200160002090508a8a838181106111e8577f4e487b7100000000000000000000000000000000000000000000000000000000600052603260045260246000fd5b905060200201358160000181905550600460008f8f85818110611234577f4e487b7100000000000000000000000000000000000000000000000000000000600052603260045260246000fd5b90506020020160208101906112499190611a85565b73ffffffffffffffffffffffffffffffffffffffff1673ffffffffffffffffffffffffffffffffffffffff16815260200190815260200160002060005490806001815401808255809150506001900390600052602060002001600090919091909150557fff1c068494aa03e86fc8afca49fe649c7998c049b8cd4a87ecfb9f1669bb1db46000548f8f85818110611309577f4e487b7100000000000000000000000000000000000000000000000000000000600052603260045260246000fd5b905060200201602081019061131e9190611a85565b8d8d86818110611357577f4e487b7100000000000000000000000000000000000000000000000000000000600052603260045260246000fd5b905060200201356000806040516113729594939291906124e2565b60405180910390a150808061138690612795565b915050611102565b50600360003373ffffffffffffffffffffffffffffffffffffffff1673ffffffffffffffffffffffffffffffffffffffff1681526020019081526020016000206000549080600181540180825580915050600190039060005260206000200160009091909190915055505050505050505050505050565b6000806001600084815260200190815260200160002060008573ffffffffffffffffffffffffffffffffffffffff1673ffffffffffffffffffffffffffffffffffffffff16815260200190815260200160002060405180606001604052908160008201548152602001600182015481526020016002820160009054906101000a900460ff16151515158152505090506000429050856080015186606001516114ad91906125f3565b8110156114bf57600092505050611573565b8560a0015186606001516114d391906125f3565b81106114f657816020015182600001516114ed91906126d4565b92505050611573565b600086606001518261150891906126d4565b905060008760c001519050600081836115219190612649565b905060008282611531919061267a565b905060008a60a0015182886000015161154a919061267a565b6115549190612649565b905086602001518161156691906126d4565b9050809750505050505050505b9392505050565b6115a98383866020015173ffffffffffffffffffffffffffffffffffffffff166115ec9092919063ffffffff16565b60008111156115e6576115e5846000015182866020015173ffffffffffffffffffffffffffffffffffffffff166115ec9092919063ffffffff16565b5b50505050565b61166d8363a9059cbb60e01b848460405160240161160b92919061212b565b604051602081830303815290604052907bffffffffffffffffffffffffffffffffffffffffffffffffffffffff19166020820180517bffffffffffffffffffffffffffffffffffffffffffffffffffffffff8381831617835250505050611672565b505050565b60006116d4826040518060400160405280602081526020017f5361666545524332303a206c6f772d6c6576656c2063616c6c206661696c65648152508573ffffffffffffffffffffffffffffffffffffffff166117399092919063ffffffff16565b905060008151111561173457808060200190518101906116f49190611b99565b611733576040517f08c379a000000000000000000000000000000000000000000000000000000000815260040161172a90612398565b60405180910390fd5b5b505050565b60606117488484600085611751565b90509392505050565b606082471015611796576040517f08c379a000000000000000000000000000000000000000000000000000000000815260040161178d90612278565b60405180910390fd5b6000808673ffffffffffffffffffffffffffffffffffffffff1685876040516117bf91906120dd565b60006040518083038185875af1925050503d80600081146117fc576040519150601f19603f3d011682016040523d82523d6000602084013e611801565b606091505b50915091506118128783838761181e565b92505050949350505050565b60608315611881576000835114156118795761183985611894565b611878576040517f08c379a000000000000000000000000000000000000000000000000000000000815260040161186f90612338565b60405180910390fd5b5b82905061188c565b61188b83836118b7565b5b949350505050565b6000808273ffffffffffffffffffffffffffffffffffffffff163b119050919050565b6000825111156118ca5781518083602001fd5b806040517f08c379a00000000000000000000000000000000000000000000000000000000081526004016118fe9190612176565b60405180910390fd5b604051806101000160405280600073ffffffffffffffffffffffffffffffffffffffff168152602001600073ffffffffffffffffffffffffffffffffffffffff16815260200160008152602001600081526020016000815260200160008152602001600081526020016000151581525090565b604051806060016040528060008152602001600081526020016000151581525090565b6000813590506119ac81612bed565b92915050565b60008083601f8401126119c457600080fd5b8235905067ffffffffffffffff8111156119dd57600080fd5b6020830191508360208202830111156119f557600080fd5b9250929050565b60008083601f840112611a0e57600080fd5b8235905067ffffffffffffffff811115611a2757600080fd5b602083019150836020820283011115611a3f57600080fd5b9250929050565b600081359050611a5581612c04565b92915050565b600081519050611a6a81612c04565b92915050565b600081359050611a7f81612c1b565b92915050565b600060208284031215611a9757600080fd5b6000611aa58482850161199d565b91505092915050565b6000806000806000806000806000806101008b8d031215611ace57600080fd5b60008b013567ffffffffffffffff811115611ae857600080fd5b611af48d828e016119b2565b9a509a50506020611b078d828e0161199d565b98505060408b013567ffffffffffffffff811115611b2457600080fd5b611b308d828e016119fc565b97509750506060611b438d828e01611a70565b9550506080611b548d828e01611a70565b94505060a0611b658d828e01611a70565b93505060c0611b768d828e01611a70565b92505060e0611b878d828e01611a46565b9150509295989b9194979a5092959850565b600060208284031215611bab57600080fd5b6000611bb984828501611a5b565b91505092915050565b60008060408385031215611bd557600080fd5b6000611be385828601611a70565b9250506020611bf48582860161199d565b9150509250929050565b60008060408385031215611c1157600080fd5b6000611c1f85828601611a70565b9250506020611c3085828601611a70565b9150509250929050565b6000611c4683836120bf565b60208301905092915050565b611c5b81612708565b82525050565b611c6a81612708565b82525050565b6000611c7b82612598565b611c8581856125c6565b9350611c9083612588565b8060005b83811015611cc1578151611ca88882611c3a565b9750611cb3836125b9565b925050600181019050611c94565b5085935050505092915050565b611cd78161271a565b82525050565b611ce68161271a565b82525050565b6000611cf7826125a3565b611d0181856125d7565b9350611d11818560208601612762565b80840191505092915050565b611d2681612750565b82525050565b6000611d37826125ae565b611d4181856125e2565b9350611d51818560208601612762565b611d5a8161283c565b840191505092915050565b6000611d726012836125e2565b9150611d7d8261284d565b602082019050919050565b6000611d956018836125e2565b9150611da082612876565b602082019050919050565b6000611db86018836125e2565b9150611dc38261289f565b602082019050919050565b6000611ddb601a836125e2565b9150611de6826128c8565b602082019050919050565b6000611dfe602c836125e2565b9150611e09826128f1565b604082019050919050565b6000611e216018836125e2565b9150611e2c82612940565b602082019050919050565b6000611e44601d836125e2565b9150611e4f82612969565b602082019050919050565b6000611e676026836125e2565b9150611e7282612992565b604082019050919050565b6000611e8a6028836125e2565b9150611e95826129e1565b604082019050919050565b6000611ead601e836125e2565b9150611eb882612a30565b602082019050919050565b6000611ed06014836125e2565b9150611edb82612a59565b602082019050919050565b6000611ef36029836125e2565b9150611efe82612a82565b604082019050919050565b6000611f166012836125e2565b9150611f2182612ad1565b602082019050919050565b6000611f39601d836125e2565b9150611f4482612afa565b602082019050919050565b6000611f5c6017836125e2565b9150611f6782612b23565b602082019050919050565b6000611f7f6012836125e2565b9150611f8a82612b4c565b602082019050919050565b6000611fa2602a836125e2565b9150611fad82612b75565b604082019050919050565b6000611fc56012836125e2565b9150611fd082612bc4565b602082019050919050565b606082016000820151611ff160008501826120bf565b50602082015161200460208501826120bf565b5060408201516120176040850182611cce565b50505050565b610100820160008201516120346000850182611c52565b5060208201516120476020850182611c52565b50604082015161205a60408501826120bf565b50606082015161206d60608501826120bf565b50608082015161208060808501826120bf565b5060a082015161209360a08501826120bf565b5060c08201516120a660c08501826120bf565b5060e08201516120b960e0850182611cce565b50505050565b6120c881612746565b82525050565b6120d781612746565b82525050565b60006120e98284611cec565b915081905092915050565b60006060820190506121096000830186611c61565b6121166020830185611c61565b61212360408301846120ce565b949350505050565b60006040820190506121406000830185611c61565b61214d60208301846120ce565b9392505050565b6000602082019050818103600083015261216e8184611c70565b905092915050565b600060208201905081810360008301526121908184611d2c565b905092915050565b600060208201905081810360008301526121b181611d65565b9050919050565b600060208201905081810360008301526121d181611d88565b9050919050565b600060208201905081810360008301526121f181611dab565b9050919050565b6000602082019050818103600083015261221181611dce565b9050919050565b6000602082019050818103600083015261223181611df1565b9050919050565b6000602082019050818103600083015261225181611e14565b9050919050565b6000602082019050818103600083015261227181611e37565b9050919050565b6000602082019050818103600083015261229181611e5a565b9050919050565b600060208201905081810360008301526122b181611e7d565b9050919050565b600060208201905081810360008301526122d181611ea0565b9050919050565b600060208201905081810360008301526122f181611ec3565b9050919050565b6000602082019050818103600083015261231181611ee6565b9050919050565b6000602082019050818103600083015261233181611f09565b9050919050565b6000602082019050818103600083015261235181611f2c565b9050919050565b6000602082019050818103600083015261237181611f4f565b9050919050565b6000602082019050818103600083015261239181611f72565b9050919050565b600060208201905081810360008301526123b181611f95565b9050919050565b600060208201905081810360008301526123d181611fb8565b9050919050565b6000610160820190506123ee600083018561201d565b6123fc610100830184611fdb565b9392505050565b600060208201905061241860008301846120ce565b92915050565b600061012082019050612434600083018c6120ce565b612441602083018b611c61565b61244e604083018a611c61565b61245b60608301896120ce565b61246860808301886120ce565b61247560a08301876120ce565b61248260c08301866120ce565b61248f60e08301856120ce565b61249d610100830184611cdd565b9a9950505050505050505050565b60006060820190506124c060008301866120ce565b6124cd6020830185611c61565b6124da60408301846120ce565b949350505050565b600060a0820190506124f760008301886120ce565b6125046020830187611c61565b61251160408301866120ce565b61251e6060830185611d1d565b61252b6080830184611cdd565b9695505050505050565b600060a08201905061254a60008301886120ce565b6125576020830187611c61565b61256460408301866120ce565b61257160608301856120ce565b61257e6080830184611cdd565b9695505050505050565b6000819050602082019050919050565b600081519050919050565b600081519050919050565b600081519050919050565b6000602082019050919050565b600082825260208201905092915050565b600081905092915050565b600082825260208201905092915050565b60006125fe82612746565b915061260983612746565b9250827fffffffffffffffffffffffffffffffffffffffffffffffffffffffffffffffff0382111561263e5761263d6127de565b5b828201905092915050565b600061265482612746565b915061265f83612746565b92508261266f5761266e61280d565b5b828204905092915050565b600061268582612746565b915061269083612746565b9250817fffffffffffffffffffffffffffffffffffffffffffffffffffffffffffffffff04831182151516156126c9576126c86127de565b5b828202905092915050565b60006126df82612746565b91506126ea83612746565b9250828210156126fd576126fc6127de565b5b828203905092915050565b600061271382612726565b9050919050565b60008115159050919050565b600073ffffffffffffffffffffffffffffffffffffffff82169050919050565b6000819050919050565b600061275b82612746565b9050919050565b60005b83811015612780578082015181840152602081019050612765565b8381111561278f576000848401525b50505050565b60006127a082612746565b91507fffffffffffffffffffffffffffffffffffffffffffffffffffffffffffffffff8214156127d3576127d26127de565b5b600182019050919050565b7f4e487b7100000000000000000000000000000000000000000000000000000000600052601160045260246000fd5b7f4e487b7100000000000000000000000000000000000000000000000000000000600052601260045260246000fd5b6000601f19601f8301169050919050565b7f416d6f756e74206d757374206265203e20300000000000000000000000000000600082015250565b7f496e76616c696420526563696576657220416464726573730000000000000000600082015250565b7f76657374696e67206973206e6f74207265766f6361626c650000000000000000600082015250565b7f76657374696e6720697320616c7265616479207265766f6b6564000000000000600082015250565b7f4e6f742076616c696420696e70757420666f72205265636569766572206f722060008201527f546f6b656e20416d6f756e740000000000000000000000000000000000000000602082015250565b7f4e6f7420417574686f72697a656420746f207265766f6b650000000000000000600082015250565b7f4e6f7420656e6f75676820746f6b656e7320746f207769746864726177000000600082015250565b7f416464726573733a20696e73756666696369656e742062616c616e636520666f60008201527f722063616c6c0000000000000000000000000000000000000000000000000000602082015250565b7f436c6966662074696d652073686f756c64206e6f742065786365656420746f2060008201527f6475726174696f6e000000000000000000000000000000000000000000000000602082015250565b7f536c696365506572696f645365636f6e6473206d757374206265203e20300000600082015250565b7f4475726174696f6e206d757374206265203e2030000000000000000000000000600082015250565b7f536c696365506572696f642073686f756c64206e6f742065786365656420746f60008201527f206475726174696f6e0000000000000000000000000000000000000000000000602082015250565b7f5265636569766572206e6f7420666f756e640000000000000000000000000000600082015250565b7f416464726573733a2063616c6c20746f206e6f6e2d636f6e7472616374000000600082015250565b7f5472616e73616374696f6e20696e747572727570746564000000000000000000600082015250565b7f496e76616c69642076657374696e674964730000000000000000000000000000600082015250565b7f5361666545524332303a204552433230206f7065726174696f6e20646964206e60008201527f6f74207375636365656400000000000000000000000000000000000000000000602082015250565b7f496e76616c69642053746172742054696d650000000000000000000000000000600082015250565b612bf681612708565b8114612c0157600080fd5b50565b612c0d8161271a565b8114612c1857600080fd5b50565b612c2481612746565b8114612c2f57600080fd5b5056fea2646970667358221220365618cc9f6ad6c1dc7bf220bda10fe33628bca273ed4cd5dcb72beea49f2f5364736f6c63430008040033",
  "linkReferences": {},
  "deployedLinkReferences": {}
}