{
  "_format": "hh-sol-artifact-1",
  "contractName": "Hodl",
  "sourceName": "contracts/Hodl.sol",
  "abi": [
    {
      "anonymous": false,
      "inputs": [
        {
          "indexed": false,
          "internalType": "uint256",
          "name": "id",
          "type": "uint256"
        },
        {
          "indexed": false,
          "internalType": "uint256",
          "name": "unlockTime",
          "type": "uint256"
        },
        {
          "indexed": false,
          "internalType": "uint256",
          "name": "lockedTime",
          "type": "uint256"
        },
        {
          "indexed": false,
          "internalType": "address",
          "name": "owner",
          "type": "address"
        },
        {
          "indexed": false,
          "internalType": "address",
          "name": "tokenAddress",
          "type": "address"
        },
        {
          "indexed": false,
          "internalType": "uint256",
          "name": "amount",
          "type": "uint256"
        },
        {
          "indexed": false,
          "internalType": "bool",
          "name": "withdrawn",
          "type": "bool"
        }
      ],
      "name": "Deposited",
      "type": "event"
    },
    {
      "anonymous": false,
      "inputs": [
        {
          "indexed": false,
          "internalType": "uint256",
          "name": "id",
          "type": "uint256"
        },
        {
          "indexed": false,
          "internalType": "uint256",
          "name": "amount",
          "type": "uint256"
        },
        {
          "indexed": false,
          "internalType": "address",
          "name": "tokenAddress",
          "type": "address"
        }
      ],
      "name": "Withdrawn",
      "type": "event"
    },
    {
      "inputs": [
        {
          "internalType": "uint256",
          "name": "_duration",
          "type": "uint256"
        },
        {
          "internalType": "uint256",
          "name": "_amount",
          "type": "uint256"
        },
        {
          "internalType": "address",
          "name": "_tokenAddress",
          "type": "address"
        }
      ],
      "name": "deposit",
      "outputs": [],
      "stateMutability": "nonpayable",
      "type": "function"
    },
    {
      "inputs": [
        {
          "internalType": "address",
          "name": "",
          "type": "address"
        },
        {
          "internalType": "uint256",
          "name": "",
          "type": "uint256"
        }
      ],
      "name": "depositIds",
      "outputs": [
        {
          "internalType": "uint256",
          "name": "",
          "type": "uint256"
        }
      ],
      "stateMutability": "view",
      "type": "function"
    },
    {
      "inputs": [
        {
          "internalType": "uint256",
          "name": "",
          "type": "uint256"
        }
      ],
      "name": "lockups",
      "outputs": [
        {
          "internalType": "uint256",
          "name": "id",
          "type": "uint256"
        },
        {
          "internalType": "uint256",
          "name": "unlockTime",
          "type": "uint256"
        },
        {
          "internalType": "uint256",
          "name": "lockedTime",
          "type": "uint256"
        },
        {
          "internalType": "address",
          "name": "owner",
          "type": "address"
        },
        {
          "internalType": "address",
          "name": "tokenAddress",
          "type": "address"
        },
        {
          "internalType": "uint256",
          "name": "amount",
          "type": "uint256"
        },
        {
          "internalType": "bool",
          "name": "withdrawn",
          "type": "bool"
        }
      ],
      "stateMutability": "view",
      "type": "function"
    },
    {
      "inputs": [
        {
          "internalType": "uint256",
          "name": "_id",
          "type": "uint256"
        }
      ],
      "name": "withdraw",
      "outputs": [],
      "stateMutability": "nonpayable",
      "type": "function"
    }
  ],
  "bytecode": "0x608060405234801561001057600080fd5b50610b0a806100206000396000f3fe60806040526004361061003f5760003560e01c80632e1a7d4d14610044578063303ed0e91461006d5780638e6f4fb7146100aa578063b6b55f25146100ec575b600080fd5b34801561005057600080fd5b5061006b600480360381019061006691906106ae565b610108565b005b34801561007957600080fd5b50610094600480360381019061008f9190610672565b61037b565b6040516100a19190610810565b60405180910390f35b3480156100b657600080fd5b506100d160048036038101906100cc91906106ae565b6103ac565b6040516100e396959493929190610854565b60405180910390f35b610106600480360381019061010191906106ae565b610415565b005b6000600160008381526020019081526020016000206040518060c00160405290816000820154815260200160018201548152602001600282015481526020016003820160009054906101000a900473ffffffffffffffffffffffffffffffffffffffff1673ffffffffffffffffffffffffffffffffffffffff1673ffffffffffffffffffffffffffffffffffffffff168152602001600482015481526020016005820160009054906101000a900460ff16151515158152505090508060a0015115610208576040517f08c379a00000000000000000000000000000000000000000000000000000000081526004016101ff90610790565b60405180910390fd5b806060015173ffffffffffffffffffffffffffffffffffffffff163373ffffffffffffffffffffffffffffffffffffffff161461027a576040517f08c379a0000000000000000000000000000000000000000000000000000000008152600401610271906107d0565b60405180910390fd5b80602001514210156102c1576040517f08c379a00000000000000000000000000000000000000000000000000000000081526004016102b8906107f0565b60405180910390fd5b600180600084815260200190815260200160002060050160006101000a81548160ff0219169083151502179055503373ffffffffffffffffffffffffffffffffffffffff166108fc82608001519081150290604051600060405180830381858888f19350505050158015610339573d6000803e3d6000fd5b507f0c875c8d391179c5cf7ad8303d268efd50b8beb78b671f85cd54bfb91eb8ef4082826080015160405161036f92919061082b565b60405180910390a15050565b6002602052816000526040600020818154811061039757600080fd5b90600052602060002001600091509150505481565b60016020528060005260406000206000915090508060000154908060010154908060020154908060030160009054906101000a900473ffffffffffffffffffffffffffffffffffffffff16908060040154908060050160009054906101000a900460ff16905086565b6000814261042391906108c6565b9050600034905060003390506000821415610473576040517f08c379a000000000000000000000000000000000000000000000000000000000815260040161046a906107b0565b60405180910390fd5b6040518060c0016040528060005481526020018481526020014281526020018273ffffffffffffffffffffffffffffffffffffffff168152602001838152602001600015158152506001600080600081546104cd90610964565b919050819055815260200190815260200160002060008201518160000155602082015181600101556040820151816002015560608201518160030160006101000a81548173ffffffffffffffffffffffffffffffffffffffff021916908373ffffffffffffffffffffffffffffffffffffffff1602179055506080820151816004015560a08201518160050160006101000a81548160ff021916908315150217905550905050600260003373ffffffffffffffffffffffffffffffffffffffff1673ffffffffffffffffffffffffffffffffffffffff16815260200190815260200160002060005490806001815401808255809150506001900390600052602060002001600090919091909150557f79fd4d9b74e7fec22b9bfe6c1573524e35049c76c1377b9460c82fd379ec608360005484428486600160008054815260200190815260200160002060050160009054906101000a900460ff1660405161063a96959493929190610854565b60405180910390a150505050565b60008135905061065781610aa6565b92915050565b60008135905061066c81610abd565b92915050565b6000806040838503121561068557600080fd5b600061069385828601610648565b92505060206106a48582860161065d565b9150509250929050565b6000602082840312156106c057600080fd5b60006106ce8482850161065d565b91505092915050565b6106e08161091c565b82525050565b6106ef8161092e565b82525050565b60006107026011836108b5565b915061070d826109dc565b602082019050919050565b60006107256013836108b5565b915061073082610a05565b602082019050919050565b60006107486013836108b5565b915061075382610a2e565b602082019050919050565b600061076b602b836108b5565b915061077682610a57565b604082019050919050565b61078a8161095a565b82525050565b600060208201905081810360008301526107a9816106f5565b9050919050565b600060208201905081810360008301526107c981610718565b9050919050565b600060208201905081810360008301526107e98161073b565b9050919050565b600060208201905081810360008301526108098161075e565b9050919050565b60006020820190506108256000830184610781565b92915050565b60006040820190506108406000830185610781565b61084d6020830184610781565b9392505050565b600060c0820190506108696000830189610781565b6108766020830188610781565b6108836040830187610781565b61089060608301866106d7565b61089d6080830185610781565b6108aa60a08301846106e6565b979650505050505050565b600082825260208201905092915050565b60006108d18261095a565b91506108dc8361095a565b9250827fffffffffffffffffffffffffffffffffffffffffffffffffffffffffffffffff03821115610911576109106109ad565b5b828201905092915050565b60006109278261093a565b9050919050565b60008115159050919050565b600073ffffffffffffffffffffffffffffffffffffffff82169050919050565b6000819050919050565b600061096f8261095a565b91507fffffffffffffffffffffffffffffffffffffffffffffffffffffffffffffffff8214156109a2576109a16109ad565b5b600182019050919050565b7f4e487b7100000000000000000000000000000000000000000000000000000000600052601160045260246000fd5b7f416c72656164792057697468647261776e000000000000000000000000000000600082015250565b7f4465706f73697420736f6d652065746865727300000000000000000000000000600082015250565b7f556e617574686f72697a65642041636365737300000000000000000000000000600082015250565b7f596f752063616e277420776974686472617720657468657273206265666f726560008201527f20756e6c6f636b74696d65000000000000000000000000000000000000000000602082015250565b610aaf8161091c565b8114610aba57600080fd5b50565b610ac68161095a565b8114610ad157600080fd5b5056fea2646970667358221220f4c1fa019ff33e6e8e00759017f0656a2929dec4642bfd4142820a6b020ab70a64736f6c63430008040033",
  "linkReferences": {},
  "deployedLinkReferences": {}
}